{
  "commit": "b5ed8ea",
  "libraries": [],
  "path": "/Users/shunkakinoki/ghq/github.com/shunkakinoki/contracts/broadcast/GnosisSafeDeployer.sol/5/run-latest.json",
  "pending": [
    "0x4d02274abdad1e62234def175ba3b1cb45b20dc2669ad791fa94f20f0cb27d49"
  ],
  "receipts": [],
  "returns": {},
  "timestamp": 1661525762,
  "transactions": [
    {
      "additionalContracts": [
        {
          "address": "0x341d1e87a192ea29b51b128104cb29a0bfe4f7fe",
          "initCode": "608060405234801561001057600080fd5b506040516101e63803806101e68339818101604052602081101561003357600080fd5b8101908080519060200190929190505050600073ffffffffffffffffffffffffffffffffffffffff168173ffffffffffffffffffffffffffffffffffffffff1614156100ca576040517f08c379a00000000000000000000000000000000000000000000000000000000081526004018080602001828103825260228152602001806101c46022913960400191505060405180910390fd5b806000806101000a81548173ffffffffffffffffffffffffffffffffffffffff021916908373ffffffffffffffffffffffffffffffffffffffff1602179055505060ab806101196000396000f3fe608060405273ffffffffffffffffffffffffffffffffffffffff600054167fa619486e0000000000000000000000000000000000000000000000000000000060003514156050578060005260206000f35b3660008037600080366000845af43d6000803e60008114156070573d6000fd5b3d6000f3fea2646970667358221220d1429297349653a4918076d650332de1a1068c5f3e07c5c82360c277770b955264736f6c63430007060033496e76616c69642073696e676c65746f6e20616464726573732070726f76696465640000000000000000000000003e5c63644e683549055b9be8653de26e0b4cd36e",
          "transactionType": "CREATE2"
        }
      ],
      "arguments": [
        "3e5c63644e683549055b9be8653de26e0b4cd36e",
        "b63e800d0000000000000000000000000000000000000000000000000000000000000100000000000000000000000000000000000000000000000000000000000000000100000000000000000000000000000000000000000000000000000000000000000000000000000000000000000000000000000000000000000000000000000140000000000000000000000000f48f2b2d2a534e402487b3ee7c18c33aec0fe5e40000000000000000000000000000000000000000000000000000000000000000000000000000000000000000000000000000000000000000000000000000000000000000000000000000000000000000000000000000000000000000000000000000000000000000000000000000000000000000000000000000000000000001000000000000000000000000a5a7468f177d94212cd0fdc0886ee732155c47e90000000000000000000000000000000000000000000000000000000000000000",
        "1e1bb"
      ],
      "contractAddress": "0xa6b71e26c5e0845f74c812102ca7114b6a896ab2",
      "contractName": "GnosisSafeProxyFactory",
      "function": "createProxyWithNonce(address,bytes,uint256):(address)",
      "hash": "0x4d02274abdad1e62234def175ba3b1cb45b20dc2669ad791fa94f20f0cb27d49",
      "transaction": {
        "accessList": [],
        "data": "0x1688f0b90000000000000000000000003e5c63644e683549055b9be8653de26e0b4cd36e0000000000000000000000000000000000000000000000000000000000000060000000000000000000000000000000000000000000000000000000000001e1bb0000000000000000000000000000000000000000000000000000000000000164b63e800d0000000000000000000000000000000000000000000000000000000000000100000000000000000000000000000000000000000000000000000000000000000100000000000000000000000000000000000000000000000000000000000000000000000000000000000000000000000000000000000000000000000000000140000000000000000000000000f48f2b2d2a534e402487b3ee7c18c33aec0fe5e40000000000000000000000000000000000000000000000000000000000000000000000000000000000000000000000000000000000000000000000000000000000000000000000000000000000000000000000000000000000000000000000000000000000000000000000000000000000000000000000000000000000000001000000000000000000000000a5a7468f177d94212cd0fdc0886ee732155c47e9000000000000000000000000000000000000000000000000000000000000000000000000000000000000000000000000000000000000000000000000",
        "from": "0xdfd8e7d041c31261da027ebe8ce9ede05deae801",
        "gas": "0x5c52e",
        "nonce": "0x13",
        "to": "0xa6b71e26c5e0845f74c812102ca7114b6a896ab2",
        "type": "0x02",
        "value": "0x0"
      },
      "transactionType": "CREATE"
    }
  ]
}
